:020000040000FA
:1000000028470020990100009D0100009F01000089
:10001000A1010000A3010000A501000000000000F4
:1000200000000000000000000000000001010000CE
:10003000A901000000000000450100007328000035
:10004000AF010000AF010000AF010000AF010000F0
:10005000AF010000AF010000AF010000AF010000E0
:10006000AF010000AF010000AF010000AF010000D0
:10007000AF010000AF010000AF010000AF010000C0
:10008000AF010000AF010000AF010000AF010000B0
:10009000AF010000AF010000AF010000AF010000A0
:1000A000AF010000AF010000AF010000AF01000090
:1000B00000000000AF010000AF010000AF01000030
:1000C000AF010000AF010000AF010000AF01000070
:1000D000AF01000000000000AF010000AF01000010
:1000E000AF010000AF010000AF010000DFF80CD04D
:1000F00002F07EFC004800477F11000028470020E6
:10010000224B19680868B0E8F00F80F30988BFF344
:100110006F8F4FF0000080F311884EF00D0E704786
:100120000000000006480068006880F3088862B696
:1001300061B6BFF34F8FBFF36F8F00DF00BF00BF0B
:1001400008ED00E0EFF30980BFF36F8F0F4B1A68E3
:1001500020E9F00F106008B54FF0BF0080F3118860
:10016000BFF34F8FBFF36F8F01F074FC4FF00000AF
:1001700080F31188BDE8084019680868B0E8F00FFE
:1001800080F30988BFF36F8F704700BF0000002025
:10019000EFF305807047000005480047FEE7FEE7E3
:1001A000FEE7FEE7FEE7FEE7FEE7FEE7FEE7FEE727
:1001B000ED00000030BF704720BF704740BF704760
:1001C000BFF36F8F7047BFF34F8F7047BFF35F8FE1
:1001D000704701DF7047EFF31480704780F3148895
:1001E000BFF36F8F7047EFF30980704780F3098882
:1001F0007047EFF30880704780F30888704772B645
:10020000704762B6704771B6704761B6704780F349
:1002100011887047EFF31280704740BA704700BAF8
:100220007047000010B50446C548204478B1B0F5C9
:10023000806F16D0B0F5744F1DD10121880300F0F6
:100240003AFE00214FF4804000F035FE14E0012119
:10025000480400F03DFE00214FF4003000F038FE6D
:100260000AE00121880400F033FE00214FF48020D1
:1002700000F02EFE00E000BF00BF10BD2DE9F043EE
:1002800085B006460D460024A14600BF00BF348A53
:100290004CF2FF000440E888E9890843298A0843B2
:1002A000698A0843A98A0843044334820024B48934
:1002B0004EF6F3100440A88829890843A989084309
:1002C0000443B4810024B48A4FF6FF400440688997
:1002D0000443B48200BF684600F066FD9948864238
:1002E00002D1DDF80C9001E0DDF8089009EBC900BF
:1002F00000EB091029688900B0FBF1F76420B7FB17
:10030000F0F004012009642101FB1078322000EB99
:100310000810B0FBF1F000F00F000443348105B089
:10032000BDE8F0834FF41651016000218180C18047
:10033000018141810C2181810021C18101824182A1
:100340008182704721B1828942F40052828104E0A7
:1003500082894DF6FF731A4082817047F0B50346DB
:100360000024002600250020C1F3421401F01F06DE
:10037000012707FA06F51846012C01D10C3004E0DC
:10038000022C01D1103000E014301AB107682F435D
:10039000076002E00768AF430760F0BD1AB1838AC7
:1003A0000B43838202E0838A8B4383827047028AF5
:1003B0004FF6F0731A400282028A0A4302827047A3
:1003C00082894FF2FF731A40828182890A438281B7
:1003D000704721B1828942F00202828104E0828961
:1003E0004FF6FD731A4082817047028A4FF6DF7321
:1003F0001A400282028A0A430282704721B1028AAD
:1004000042F48042028204E0028A4BF6FF731A40F3
:1004100002827047C1F308028280704701468888D3
:10042000C0F308007047818941F001018181704764
:10043000028BD2B20283028B42EA0122028370470E
:10044000028B02F47F420283028B0A4302837047CD
:1004500021B1828A42F02002828204E0828A4FF631
:10046000DF731A408282704721B1828A42F0100203
:10047000828204E0828A4FF6EF731A4082827047CC
:1004800021B1828A42F00802828204E0828A4FF619
:10049000F7731A4082827047828A4FF6FB731A40C4
:1004A0008282828A0A438282704721B1828A42F024
:1004B0000202828204E0828A4FF6FD731A40828231
:1004C00070470246002013880B400BB1012000E06A
:1004D0000020704702888A430280704770B5024648
:1004E0000B460024002100250020C3F3421503F031
:1004F0001F01012606FA01F1012D02D19689314032
:1005000006E0022D02D1168A314001E0968A314080
:100510001C12012606FA04F41688344011B10CB1FD
:10052000012000E0002070BD10B5002200230A1257
:10053000012404FA02F304889C43048010BD0000E7
:1005400000BCFFBF0038014010B50446B249601A34
:100550008C4220D006DCB148204450B1B0F5806F09
:1005600034D10FE0B0F5806F1ED0B0F5006F2DD103
:1005700023E00121042000F09EFC0021042000F073
:100580009AFC24E00121082000F095FC00210820BD
:1005900000F091FC1BE00121102000F08CFC0021F8
:1005A000102000F088FC12E00121202000F083FCE4
:1005B0000021202000F07FFC09E00121402000F014
:1005C0007AFC0021402000F076FC00E000BF00BF74
:1005D00010BD10B50121084600F06DFC002101207E
:1005E00000F069FC10BD2DE9F0410246002500260F
:1005F000002000230024002791F803C00CF00F0511
:1006000091F803C00CF0100CBCF1000F03D091F86E
:1006100002C04CEA050591F800C0BCF1000F31D0D2
:10062000146800202AE04FF0010C0CFA00F3B1F836
:1006300000C00CEA03069E421FD183004FF00F0C4E
:100640000CFA03F7BC4305FA03FC4CEA040491F8E6
:1006500003C0BCF1280F05D14FF0010C0CFA00FCCF
:10066000C2F814C091F803C0BCF1480F05D14FF097
:10067000010C0CFA00FCC2F810C0401C0828D2D3B0
:1006800014600024B1F800C0BCF1FF0F34DD5468E1
:1006900000202EE000F1080C4FF0010808FA0CF3DE
:1006A000B1F800C00CEA03069E4221D183004FF04E
:1006B0000F0C0CFA03F7BC4305FA03FC4CEA0404E4
:1006C00091F803C0BCF1280F05D100F1080C08FA1D
:1006D0000CF8C2F8148091F803C0BCF1480F07D1A0
:1006E00000F1080C4FF0010808FA0CF8C2F810806D
:1006F000401C0828CED35460BDE8F0814FF6FF714E
:100700000180022181700421C170704702460020DF
:1007100093680B400BB1012000E0002070470146B8
:10072000886880B2704702460020D3680B400BB146
:10073000012000E0002070470146C86880B2704781
:100740000AB1016100E041617047C16070474FF438
:1007500080320A4382618161826182698269704765
:10076000024600202E4B18684FF68073184040EA6E
:10077000021008432A4B186070472A49C861704725
:1007800070B50B460022002400210025244E71681C
:10079000C0F3034582B200F40016B6F5001F02D183
:1007A00021F0E0610AE000F48016B6F5801F04D164
:1007B000032606FA05F4A14300E0914343B100F497
:1007C0000016B6F5001F02D141EA024100E01143D4
:1007D000134E716070BD30B500228B071C0F0F23C4
:1007E00003FA04F20E4B08338C1053F82430934371
:1007F0000B4C08348D1044F8253023468C1053F8E8
:1008000024308C07240F00FA04F42343044C0834EA
:100810008D1044F8253030BD0010014000F8FEBFB7
:1008200000000140000020420020411EEF4A1160FC
:100830004A0DEE498039C1F88420411E4FF0E02274
:10084000C2F880124A0DEA490A6000BF04E00022A3
:10085000E84941F82020401C0B28F8D370470020BD
:100860004FF02061E44A11600021121D1160E3493C
:10087000121D11600021121D1160121D116000BFB8
:1008800005E00022DC49143141F82020401C0328F7
:10089000F7D30021D84A20321160491E121D116081
:1008A000121D1160121D11607047D4490143D24AD4
:1008B000083211607047F0B50021002200230025A6
:1008C0000F24C678002E35D0CB4E0836366806F495
:1008D000E066C6F5E066310AC1F10405CC40467811
:1008E00006FA05F186782640314309010678B607F5
:1008F000F60EB140BF4E0778BF1056F82720067895
:10090000B607F70EFF2606FA07F39A4319400A4383
:10091000B84E0778BF1046F82720067806F01F0764
:100920000126BE4007787F11BF0007F1E027C7F816
:1009300000610BE0067806F01F070126BE40AB4FB2
:1009400090F800C04FEA6C1C47F82C60F0BD002105
:10095000017041708170C170704710B5FFF74FFC96
:1009600010BD10B5FFF74DFC10BD10B5FFF74BFCE7
:1009700010BD10B5FFF749FC10BD10B504462001AD
:10098000FFF745FC10BD10B5FFF744FC10BD9A48B9
:100990000068C0F30930704710B5014600200022FE
:1009A00001F01F04012303FA04F2904B80334C1131
:1009B00053F824301340934201D1012000E000207D
:1009C00010BD8F490860704700F01F02012191405F
:1009D000874A121F431142F8231070478648006867
:1009E000C0F30900704710B501460020002201F055
:1009F0001F04012303FA04F27D4B7C334C1153F89E
:100A000024301340934201D1012000E0002010BDAA
:100A10007948001F006870477A4A02EAC112764B93
:100A20001B1D1A601A46126802431A607047734809
:100A3000001D71490831086070477048401C6E49BC
:100A400008310860704739B16B4A0C3212680243B2
:100A5000694B0C331A6006E0674A0C321268824315
:100A6000654B0C331A60704710B5002200F01F046C
:100A7000012303FA04F239B15F4B20331B6813439F
:100A80005D4C2034236006E05B4B20331B689343AE
:100A9000594C2034236010BDF0B503460C46154672
:100AA0000020FF2200260021534F08373F6807F43B
:100AB000E067C7F5E067390AC1F10400CA4004FAEB
:100AC00000F105EA02073943090103F0C00080097B
:100AD000C3F30122D700B9404FEAC20CFF2707FA3F
:100AE0000CF6454F143757F82070B743DFF808C1AC
:100AF0000CF1140C4CF82070674657F820700F4327
:100B00004CF82070F0BD10B50246002000230021F3
:100B1000910A01F00F01012404FA01F1364C20344E
:100B2000246804EA01038B4201D1012000E0002087
:100B300010BD002100F01F012F4A126801238B40D5
:100B40001A432D4B1A60704710B5002100F01F01A9
:100B5000294A12684B1E01249C402243264B1A60EE
:100B600010BD10B50246002000230021C2F38331DE
:100B7000012404FA01F1204C2034246804EA010322
:100B80008B4201D1012000E0002010BD30B50146AC
:100B9000002000220023C1F38142C1F301531AB99E
:100BA000154C2834206811E0012A0CD1124C243451
:100BB0002468DD0024FA05F0022B02D000F00F00BB
:100BC00004E0C0B202E00C4C2C34206830BD014679
:100BD00000200022C1F380521AB9074B3033186845
:100BE00002E0054B343318687047000080E100E0F4
:100BF00084E200E000E400E004ED00E00000FA051B
:100C000000EF00E080FFFF1F0020D549C8600861A9
:100C10001420486100208861C8610846006840F0DF
:100C20000100086008464068CE490840CC49486049
:100C300008460068CC490840C94908600846006871
:100C400020F4802008600846406820F4FE004860D8
:100C5000002088607047C249096821F48031C04A89
:100C600011601146096821F480211160B0F5803FC0
:100C700003D0B0F5802F0ED106E0B949096841F4E0
:100C80008031B74A116007E0B549096841F4A021F5
:100C9000B34A116000E000BF00BF7047014600206A
:100CA000AF4A106820F0F80040EAC10010607047B9
:100CB000AE490860704702460020A94B586820F4EE
:100CC0007C1042EA01031843A54B58607047A749BE
:100CD0000866704701460020A14A506820F00300D2
:100CE0000843506070479E48406800F00C00704711
:100CF000014600209A4A506820F0F00008435060F6
:100D0000704701460020964A506820F4E06008438E
:100D10005060704701460020914A506820F46050AE
:100D200040EAC1005060704729B18D4A527A0243AF
:100D30008B4B5A7204E08A4A527A8243884B5A7229
:100D400070478A49D8310860704701460020844ABC
:100D5000506820F440400843506070470021804AAA
:100D6000203211707E4A82F82010012802D0042817
:100D70000AD104E001217A4A2032117005E00521F0
:100D8000774A2032117000E000BF00BF70477849F9
:100D9000086070477249096A0143714A11627047DD
:100DA000734944390860704730B50021002200249F
:100DB00000236B4D6D6805F00C0121B1042905D0AD
:100DC000082923D105E06B4D056022E0694D0560DF
:100DD0001FE0634D6D6805F47012022505EB924229
:100DE0005F4D6D6805F480341CB9634D5543056053
:100DF0000BE05B4D6D6805F400351DB15E4D55434C
:100E0000056002E05B4D5543056002E0594D056009
:100E100000BF00BF524D6D6805F0F0010909574D44
:100E20006B5C0568DD4045604D4D6D6805F4E06123
:100E3000090A524D6B5C4568DD408560484D6D6820
:100E400005F46051C90A4D4D6B5C4568DD40C560D5
:100E5000434D6D6805F44041890B494D6B5CC56895
:100E6000B5FBF3F5056130BD29B13D4A5269024336
:100E70003B4B5A6104E03A4A52698243384B5A610B
:100E8000704729B1364A92690243354B9A6104E0B2
:100E9000334A92698243324B9A61704729B1304A92
:100EA000D26902432E4BDA6104E02D4AD2698243B3
:100EB0002B4BDA61704729B1294AD2680243284B8B
:100EC000DA6004E0264AD2688243254BDA60704734
:100ED00029B1234A12690243214B1A6104E0204AD6
:100EE000126982431E4B1A617047214940390860DC
:100EF00070471E49C86470471949C871704710B5DA
:100F000001460022002300204A11012A02D1144C7C
:100F1000236806E0022A02D1114C236A01E0104C3A
:100F2000636A01F01F02012494401C400CB10120AF
:100F300000E0002010BD0A48406A40F08070084977
:100F40004862704701460020054A92680A400AB18B
:100F5000012000E0002070470149887270470000BE
:100F6000001002400000FFF8FFFFF6FE00004242C2
:100F70008004424200127A0000093D00642A000009
:100F8000742A0000042808D14FF0E021096941F0DB
:100F900004014FF0E022116107E04FF0E021096900
:100FA00021F004014FF0E022116170474FF0E02181
:100FB0004861704720B900214FF0E022916112E0B2
:100FC000012808D14FF0E021096941F001014FF0FB
:100FD000E022116107E04FF0E021096921F00101F1
:100FE0004FF0E0221161704740B14FF0E0210969F4
:100FF00041F002014FF0E022116107E04FF0E021E3
:10100000096921F002014FF0E022116170474FF0B1
:10101000E0208069704710B50146002200230020BF
:101020004A11012A03D14FF0E024236902E04FF076
:10103000E024E36901F01F02012494401C400CB13C
:10104000012000E0002010BD10B588B04FF4E1345D
:10105000012144F20400FFF714FF4FF48060ADF863
:10106000040004208DF8070001A91F48FFF7BBFA10
:101070004FF40070ADF8040003208DF8060018202E
:101080008DF8070001A91848FFF7ADFA0294002077
:10109000ADF80C00ADF80E00ADF81000ADF8120080
:1010A0000C20ADF814000020ADF81600ADF81800C3
:1010B0004FF40070ADF81A000020ADF81C0002A932
:1010C0000A48FFF7DBF801210848FFF73BF908B0B1
:1010D00010BD0A46054900BF0B8803F08003002BB2
:1010E000FAD08880704700000008014000380140B5
:1010F00010B5FFF789FD4FF48030FFF7ACFD00BF5E
:101100003120FFF7FCFE0028FAD0022021490860B8
:101110000020FFF7EDFD0020FFF7FCFD4FF480609D
:10112000FFF7EFFD4FF4E0114FF48030FFF7C3FD00
:101130000120FFF7CCFD00BF3920FFF7E0FE0028BB
:10114000FAD00220FFF7C6FD00BFFFF7CCFD08284C
:10115000FBD101217D20FFF794FE01218803FFF7D9
:101160009DFE00210846FFF757FC4FF44070FFF743
:101170009CFB0420FFF706FFFFF766FF10BD10B5CC
:10118000FFF7B6FF04A001F045FC00F0DEFD0020F3
:1011900010BD00000020024068656C6C6F20776F06
:1011A000726C640010B5002407E004EB8401FD4A72
:1011B00002EB810001F0BBFA641C052CF5D3FA4860
:1011C00001F0B5FAF94801F0B2FAF94801F0AFFAC6
:1011D000F84801F0ACFAF84801F0A9FAF248F749EA
:1011E0000860F248F649086010BD10B5044601F0E9
:1011F00023FBF4480068401CF2490860F24800688C
:1012000040B9F14804600846006801280DD1FFF795
:10121000C9FF0AE0ED48006838B9EB480068C06AC9
:10122000E16A884201D8E8480460E9480068401C47
:10123000E749086094F82C1001208840E5490968C6
:101240000843E4490860E16A01EB8101D54A02EBF9
:1012500081014868A0608268E260211D8268516057
:101260008160E16A01EB8101CE4A02EB8102626199
:10127000E16A01EB8101CB4A52F82110491CE26A74
:1012800002EB8202C74B43F8221001F0E4FACF4888
:10129000006868B1CC480068C06AE16A884207D239
:1012A0004FF08050CC490860BFF34F8FBFF36F8F72
:1012B00010BD2DE9FF5F80460E469146DDE90E7AAE
:1012C000109CA9F10100216B01EB800B2BF0070BA7
:1012D00086B1002507E0715D04F134004155705D71
:1012E00000B902E06D1C102DF5D300BF0021432092
:1012F000015502E0002084F83400052F00D30427B4
:10130000E762201D01F020FA04F1180001F01CFA38
:101310002461C7F10500A06164620020606484F864
:10132000480041465846039A01F057FA2060BAF146
:10133000000F01D0CAF80040BDE8FF9F2DE9FF4F24
:1013400085B0804689461746DDE912ABB80001F04A
:10135000C6FA064656B14C2001F0C1FA04460CB15B
:10136000266304E0304601F019FB00E000247CB164
:101370000020CDE900ABCDE902403A46494640465F
:10138000089BFFF796FF2046FFF72FFF012501E09E
:101390004FF0FF35284609B0BDE8F08F10B5044680
:1013A000206B01F0FBFA204601F0F8FA10BD8348EB
:1013B0000068006808B9012000E0002020B14FF06B
:1013C000FF308649086005E07C480068C068006816
:1013D00082490860704770B5054601F02DFA15B9CD
:1013E0007948006800E028460446201D01F0D5F940
:1013F00078B9E06A00EB80006A4951F8200040B9F2
:1014000094F82C1001208840724909688143714882
:101410000160A06A18B104F1180001F0BEF96C482F
:101420000068401C6A49086067480068844209D126
:10143000211D604801F08BF969480068401C68492B
:10144000086006E05F480068401E5E490860FFF7DC
:10145000AEFF01F000FA5C480068844202D02046EA
:10146000FFF79CFF5948006858B15748006884420C
:1014700007D14FF0805058490860BFF34F8FBFF33A
:101480006F8F70BD2DE9F041002756480068002895
:101490007ED155480068451C534805608DB94748C2
:1014A000D0F8008046480068444908604448C0F8C5
:1014B00000804E480068401C4C490860FFF777FFE9
:1014C00000BF4648006885426BD300BF3B480068B8
:1014D000006808B9012000E0002020B14FF0FF3083
:1014E0003E4908608FE035480068C068C468666897
:1014F000B54202D23948066085E06069D4E902123B
:101500008A60D4E902214A60211D42688A4201D1E1
:10151000E1684160002262610168491E0160A06AC1
:1015200098B1A06AD4E907128A60D4E907214A6019
:1015300004F1180142688A4201D1216A4160002207
:10154000A2620168491E016000BF94F82C100120BE
:1015500088402049096808431E490860E16A01EB98
:101560008101104A02EB81014868A0608268E26054
:10157000211D826851608160E16A01EB8101094AA5
:1015800002EB81026261E16A01EB8101054A00E040
:101590004AE052F82110491CE26A02EB8202014B38
:1015A00026E031E060000020C4000020D8000020C8
:1015B000EC000020000100201401002004000020A5
:1015C0000800002010000020000000201C00002067
:1015D0002C0000201800002004ED00E03000002066
:1015E0000C0000203C0000201400002028000020F7
:1015F00043F82210FE49E06A0968C96A8842FFF48C
:1016000065AF012762E700BFF9480068C06A00EBD8
:101610008000F84951F82000012800D90127F64838
:10162000006800B1012704E0F4480068401CF34959
:1016300008603846BDE8F08170B50024002601F04E
:10164000FBF8EF480068401EED4908600846006856
:1016500000287DD1EB480068002879D05BE0EA489B
:10166000C068C468A06AD4E907128A60D4E9072177
:101670004A6004F1180142688A4201D1216A41603E
:101680000022A2620168491E01606069D4E9021269
:101690008A60D4E902214A60211D42688A4201D150
:1016A000E1684160002262610168491E016094F8AE
:1016B0002C1001208840D54909680843D3490860A7
:1016C000E16A01EB8101CB4A02EB81014868A0602D
:1016D0008268E260211D826851608160E16A01EBED
:1016E0008101C44A02EB81026261E16A01EB81017E
:1016F000C04A52F82110491CE26A02EB8202BD4B3B
:1017000043F82210BA49E06A0968C96A884202D3DC
:101710000120B9490860BC48006808B9012000E010
:10172000002000289BD00CB1FFF741FEB3480568AC
:1017300065B100BFFFF7A6FE10B10120AE490860F9
:101740006D1E002DF6D10020AC490860AA4800E0CB
:1017500009E0006838B101263007AD490860BFF3E1
:101760004F8FBFF36F8F01F076F8304670BD2DE9D3
:10177000F04105460E46A74807689D480068001DD1
:1017800001F00BF850B99A48006890F82C1001202D
:1017900088409E49096881439C480160681CD8B90B
:1017A000D6B19D4948689249096888609049826825
:1017B0000968CA608E490968091D826851608C49B0
:1017C0000968091D8160944A894909684A6111467E
:1017D0000968491C11601AE07C198548006844605A
:1017E000BC4207D282480168091D8C48006800F09D
:1017F000BAFF0CE07E480168091D8948006800F0C6
:10180000B2FF88480068844201D286480460BDE87F
:10181000F0817B480068401C7949086070472DE9D9
:10182000F047044688464FF00009FFF7F2FF794879
:101830000668206800EB08052068B04207D92068D8
:10184000A8420BD9B54209D94FF0010906E020683A
:10185000A84201D8B54201D94FF001092560B9F17C
:10186000000F03D0A81B0021FFF781FFFFF7E4FE64
:1018700007463FB94FF0805065490860BFF34F8F6E
:10188000BFF36F8F4846BDE8F08770B5044600256A
:1018900044B1FFF7BEFF00212046FFF768FFFFF7C6
:1018A000CBFE05463DB94FF0805059490860BFF363
:1018B0004F8FBFF36F8F70BD70B5044600F0BCFF53
:1018C00014B94B48006800E020460646F56A00F06F
:1018D000C2FF284670BD70B5024600BFBF25EFF3BA
:1018E000118485F31188BFF34F8FBFF36F8F00BF53
:1018F000214612B93E4C246800E014462346D86ABB
:1019000000BF81F3118800BF70BD2DE9F04780460C
:101910000D464FF00009052D00D3042500F08CFF83
:10192000B8F1000F02D13248006800E0404604469A
:10193000E66AAE425BD0B5420BD92D4800688442BE
:101940000DD02B480068C06AA84208D84FF00109A2
:1019500005E027480068844201D14FF00109E76A99
:10196000E562A06900F0004010B9C5F10500A06172
:1019700007EB87011F4A02EB81016069884201D1B0
:10198000012000E0002088B3201D00F006FF30B9E0
:101990000120B8401D49096881431C48016094F842
:1019A0002C1001208840194909680843174908602C
:1019B000E16A01EB81010F4A02EB81014868A060F6
:1019C0008268E260211D826851608160E16A01EBFA
:1019D0008101084A02EB81026261E16A01EB810147
:1019E000044A52F82110491CE26A1DE022E02DE071
:1019F00000000020600000202400002020000020C3
:101A00003C00002010000020EC0000201800002006
:101A100004ED00E014000020140100200800002064
:101A2000040000203000002002EB8202FA4B43F851
:101A3000221000BFB9F1000F07D04FF08050F749D6
:101A40000860BFF34F8FBFF36F8F00BF00F003FF3D
:101A5000BDE8F087F248006818B10120F14908603C
:101A60001DE00020EF490860EF480068B0FA80F000
:101A7000C0F11F0101EB8102E74B03EB82004268DA
:101A80005268426000F108024368934202D1426802
:101A9000526842604268D268E44B1A6000BF7047E7
:101AA00070B5054600F0C8FE15B9E048006800E0D2
:101AB00028460446201D00F070FE78B9E06A00EB6D
:101AC0008000D54951F8200040B994F82C1001202D
:101AD0008840D54909688143D3480160A06A18B19C
:101AE00004F1180000F059FE211DD14800F02FFE2E
:101AF000002009E004F14801095C012903D100221A
:101B000004F148010A54401C0128F3DB00F0A3FE55
:101B1000C848006828B100F08FFEFFF748FC00F0CD
:101B20009AFEC2480068844217D1C248006840B19A
:101B30004FF08050B9490860BFF34F8FBFF36F8FEC
:101B40000BE0BB480068BC490968884203D100200B
:101B5000B649086001E0FFF77DFF70BD10B5014692
:101B600000200A46B24C5369A34201D1012300E090
:101B7000002373B1B14C936AA34201D1012300E069
:101B8000002333B9936A0BB9012300E0002303B1AA
:101B9000012010BD70B505462C46A448006884425B
:101BA00045D0002C43D000F047FE2046FFF7D6FF7B
:101BB000D8B3201D00F0F1FD94F82C1001208840CE
:101BC00099490968084398490860E16A01EB810175
:101BD000914A02EB81014868A0608268E260211DA1
:101BE000826851608160E16A01EB81018A4A02EBFF
:101BF00081026261E16A01EB8101874A52F821109A
:101C0000491CE26A02EB8202834B43F822108749A7
:101C1000E06A0968C96A884207D34FF080507F495B
:101C20000860BFF34F8FBFF36F8F00F014FE70BDDD
:101C30002DE9F04106460027344600BFBF21EFF3EF
:101C4000118081F31188BFF34F8FBFF36F8F00BFF7
:101C500005462046FFF782FF002841D07048006803
:101C6000002838D17149E06A0968C96A884203D3FB
:101C7000012701206B490860201D00F08EFD94F8BB
:101C80002C100120884068490968084366490860AB
:101C9000E16A01EB8101604A02EB81014868A060C2
:101CA0008268E260211D826851608160E16A01EB17
:101CB0008101594A02EB81026261E16A01EB810113
:101CC000554A52F82110491CE26A02EB8202524B3B
:101CD00043F8221004E004F11801584800F037FDE1
:101CE00000BF85F3118800BF3846BDE8F08110B50C
:101CF00016E000F0A1FD5248C068C468201D00F045
:101D00004CFD4D480068401E4B4908604D48006836
:101D1000401E4C49086000F09EFD2046FFF73EFB48
:101D2000484800680028E4D110BD00BFFFF7DFFF7E
:101D3000394800680128F9D94FF0805037490860C8
:101D4000BFF34F8FBFF36F8FF0E71CB53E48002104
:101D50000B468022CDE900103CA13E48FFF7EEFA89
:101D60000446012C14D100BFBF2080F31188BFF3BB
:101D70004F8FBFF36F8F00BF4FF0FF3036490860C1
:101D800001202C49086000203449086000F03EFD25
:101D9000334800681CBD10B500BFBF2080F3118818
:101DA000BFF34F8FBFF36F8F00BF00202149086042
:101DB00000F041FD10BD2949086870470021274AFD
:101DC000106870471C4800687047014611B91748F1
:101DD000006800E00846024602F13400704770B522
:101DE0000446FFF716FD1F48006820441D4908609F
:101DF000FFF722FC0546284670BD70B505460C4627
:101E00000A4801681831284600F0ADFC012120463F
:101E1000FFF7ADFC70BD00006000002004ED00E0A5
:101E20003C000020240000201800002000000020BA
:101E3000140100201C00002010000020EC000020F5
:101E4000000100200C0000203400002049444C45D3
:101E5000000000002B1D00003000002014000020B6
:101E6000380000202000002070B504460D461646BC
:101E700045F00040FB49096888616068F9490968D4
:101E8000C861F849826809680A62F6490968183128
:101E900082685160F349096818318160F149096825
:101EA0008C622168491C216001213046FFF75FFCEC
:101EB00070BD70B50346D868C168886AD1E9074526
:101EC000A560D1E90754656001F118044568A54291
:101ED00001D10C6A446000258D620468641E0460B0
:101EE000E148006800283DD14869D1E90245A56074
:101EF000D1E9025465600C1D4568A54201D1CC684A
:101F0000446000254D610468641E046091F82C4013
:101F10000120A040D54C24682043D44C2060CC6ADA
:101F200004EB8404D24D05EB840460688860856806
:101F3000CD600C1D85686C608460CC6A04EB840401
:101F4000CB4D05EB84054D61CC6A04EB8404C84D90
:101F500055F82440641CCD6A05EB8505C44E46F84F
:101F6000254010E0C34C6068C86185680D6201F1CE
:101F7000180485686C608460BE4D8D622C462468B0
:101F8000641C2C6000BFB74CC86A2468E46AA04295
:101F900004D901220120B84C206000E00022104644
:101FA00070BD70B502460B4643F000411160D06829
:101FB0001169D2E90154AC60D2E901456C604C680A
:101FC000944201D194684C60002414610C68641E32
:101FD0000C604169D0E90245A560D0E90254656012
:101FE000041D4D68A54201D1C4684C6000254561BF
:101FF0000C68641E0C6090F82C400121A1409B4CA1
:1020000024682143994C2160C46A04EB8404984DF0
:1020100005EB8404616881608D68C560041D8D686E
:102020006C608C60C46A04EB8404914D05EB8405FC
:102030004561C46A04EB84048D4D55F82440641C4A
:10204000C56A05EB85058A4E46F82540854CC16A70
:102050002468E46AA14202D90121874C216070BD45
:1020600010B5044600F0E8FB84480068206084480E
:102070000068606000F0EFFB10BD804909680160F6
:102080007F4909684160704770B506460C4600F00C
:10209000D3FB7B4802687068131A2068401C08B99B
:1020A000002519E0754930680968884206D07068D3
:1020B000904203D80125002020600DE0206898425E
:1020C00007D92068C01A20603046FFF7D6FF0025E8
:1020D00002E000202060012500F0BDFB284670BD15
:1020E00001206549086070475E49096888695D4953
:1020F0000968C96AC1F105015A4A126891617047BD
:102100002DE9F04104460F46164600F095FB554870
:102110000068443050F8240080B90121514800681B
:102120004830015556B13046FFF721FB4FF0805043
:1021300054490860BFF34F8FBFF36F8F00F08BFBE4
:1021400000F07AFB47480068443050F824506DB1E5
:1021500037B1002143480068443040F8241005E0BE
:10216000681E40490968443141F8240000213D4877
:1021700000684830015500F06EFB2846BDE8F0814C
:102180002DE9F04704460F4690461D46DDF82090A5
:1021900000F052FB334800684830005D02281AD036
:1021A00030490968443101EB84000168B94301609A
:1021B00001212C48006848300155B9F1000F0AD0C0
:1021C0004846FFF7D4FA4FF080502E490860BFF31D
:1021D0004F8FBFF36F8F00F03EFB00F02DFB2DB152
:1021E00020480068443050F8240028601D480068EA
:1021F0004830005D022801D0002609E0194909682D
:10220000443101EB8400016821EA080101600126E4
:102210000021144800684830015500F01CFB30468E
:10222000BDE8F0872DE9F05F81460D4616461F4652
:10223000DDF828A04FF0010B4C4600F0FDFABAF192
:10224000000F05D004F1440050F82500CAF8000042
:1022500004F1480010F8058002214155052F3DD2B8
:1022600012E00000000000203C00002018000020C8
:1022700060000020EC000020240000202800002046
:102280001400002004ED00E0DFE807F027030D173D
:102290001C0004F1440050F82500304304F14401CF
:1022A00041F825001BE004F1440050F82500401CD3
:1022B00004F1440141F8250011E004F1440040F824
:1022C00025600CE0B8F1020F04D004F1440040F89E
:1022D000256001E04FF0000B01E000E000BF00BF0F
:1022E000B8F1010F4AD16069D4E902128A60D4E9D9
:1022F00002214A60211D42688A4201D1E1684160A1
:10230000002262610168491E016094F82C100120CE
:102310008840FE4909680843FC490860E16A01EB0E
:102320008101FB4A02EB81014868A0608268E2609B
:10233000211D826851608160E16A01EB8101F44AEC
:1023400002EB81026261E16A01EB8101F04A52F81D
:102350002110491CE26A02EB8202ED4B43F8221085
:10236000EC49E06A0968C96A884207D94FF0805091
:10237000E9490860BFF34F8FBFF36F8F00F06BFA2E
:102380005846BDE8F09F2DE9F04F05460C46DDE9C3
:1023900009674FF00109294600BF4FF0BF0AEFF36C
:1023A00011808AF31188BFF34F8FBFF36F8F00BF87
:1023B000804626B101F1440050F82400306001F15C
:1023C000480010F804C04FF0020A00F804A0052BE2
:1023D00029D2DFE803F027030D171C0001F14400A8
:1023E00050F82400104301F1440A4AF824001BE08D
:1023F00001F1440050F82400401C01F1440A4AF85D
:10240000240011E001F1440040F824200CE0BCF16C
:10241000020F04D001F1440040F8242001E04FF005
:10242000000901E000E000BF00BFBCF1010F7CD15A
:10243000BA48006800285FD14869D1E902ABCAF800
:1024400008B0D1E902BACAF804B001F1040AD0F820
:1024500004B0D34503D1D1F80CA0C0F804A04FF0CC
:10246000000BC1F814B0D0F800A0AAF1010AC0F81E
:1024700000A091F82CA0012000FA0AF0DFF88CA24D
:10248000DAF800A040EA0A00DFF880A2CAF80000EB
:10249000D1F82CA00AEB8A0ADFF874B20BEB8A0A97
:1024A000DAF804008860D0F808B0C1F80CB001F187
:1024B000040AD0F808B0CBF804A0C0F808A0D1F8FE
:1024C0002CA00AEB8A0ADFF848B20BEB8A0BC1F8A2
:1024D00014B0D1F82CA00AEB8A0ADFF834B25BF80A
:1024E0002AA00AF1010AD1F82CB00BEB8B0BDFF814
:1024F00020E24EF82BA01EE0DFF824A2DAF8040058
:10250000C861D0F808B0C1F820B001F1180AD0F8BD
:1025100008B0CBF804A0C0F808A0DFF804B2C1F8F6
:1025200028B0DA46DAF800A000E015E00AF1010A66
:10253000CBF800A000BFDFF8DCA1C86ADAF800A081
:10254000DAF82CA0504507D90FB1012038600120DE
:10255000DFF8D0A1CAF8000000BF88F3118800BFDF
:102560004846BDE8F08F2DE9F04103461446184671
:1025700000BFBF27EFF3118287F31188BFF34F8F9E
:10258000BFF36F8F00BF154600F14802565C02276B
:102590005754121F52F82120521C00F1440747F8EB
:1025A0002120012E74D15D4A1268002A4CD1426963
:1025B000D0E9027CC7F808C0D0E902C7C7F804C058
:1025C000071DD2F804C0BC4501D1C76857604FF061
:1025D000000CC0F814C017687F1E176090F82C70AC
:1025E0000122BA40494F3F683A43484F3A60C76AB0
:1025F00007EB8707DFF818C10CEB87077A68826062
:10260000D2F808C0C0F80CC0071DD2F808C0CCF83A
:1026100004709760C76A07EB8707DFF8F4C00CEB1C
:10262000870CC0F814C0C76A07EB8707DFF8E0C063
:102630005CF827707F1CD0F82CC00CEB8C0CDFF8FA
:10264000D08048F82C7017E0354F7A68C261D2F814
:1026500008C0C0F820C000F11807D2F808C0CCF8B4
:1026600004709760DFF8B8C0C0F828C067463F68BC
:102670007F1CCCF8007000BF264FC26A3F68FF6A1B
:10268000BA4205D90CB1012222600122254F3A60DD
:1026900000BF85F3118800BFBDE8F0812DE9F0414E
:1026A00006460C4616B91B48006800E0304607464F
:1026B00000F0C2F807F14800005D022805D10021B2
:1026C00007F148000155012500E0002500F0C3F89E
:1026D0002846BDE8F0812DE9F04106460C46174634
:1026E00016B90C48006800E03046054600F0A4F832
:1026F00005F1440050F8248050F82400B84305F157
:10270000440141F8240000F0A6F80DE01800002074
:10271000600000200000002004ED00E03C000020EC
:10272000EC000020240000204046BDE8F08100F1CC
:10273000080141604FF0FF31816000F10801C16084
:10274000016100210160704700210161704742680A
:102750004A6093688B609368596091600861036870
:102760005B1C0360704710B502460B685C1C0CB91B
:10277000106907E002F1080000E04068446824683E
:102780009C42FAD944684C604C68A1608860416002
:102790000A611468641C146010BD01460A69D1E91D
:1027A00001309860D1E9010358605068884201D136
:1027B00088685060002008611068401E1060106832
:1027C0007047000000BFBF2080F31188BFF34F8F18
:1027D000BFF36F8F00BF00BFFEE7001F4FF0807395
:1027E0000360001F21F001030360001F2D4B0360F5
:1027F000143802602038704700204FF0E021086153
:1028000088612948486107200861704710B527484A
:10281000006840F47F00254908600846006840F0E1
:102820007F400860FFF7E8FF002021490860FDF7BE
:1028300079FC002010BD704700BFBF2080F31188D5
:10284000BFF34F8FBFF36F8F00BF19480068401C64
:1028500017490860704716480068401E1449086010
:102860000846006820B9002080F3118800BF00BF2F
:10287000704710B500BFBF2080F31188BFF34F8FA2
:10288000BFF36F8F00BFFEF7FDFD20B14FF080500A
:1028900006491C39086000BF002080F3118800BF82
:1028A00010BD0000C52700003F19010020ED00E029
:1028B00040000020494A22F00700494A10600022E7
:1028C000474B5A6044F2F832464B5A6000221A6075
:1028D000014644F2F8324A601A460A6070472DE910
:1028E000F04104464FF00008FEF793FF3E480068B1
:1028F00020B9FFF7DFFF01203B4908609CB104F1DC
:102900000800A0420FD9083404F00700C0F1080005
:102910002044A04205D904F00700C0F10800044497
:1029200002E0002400E00024002C32D02F48006890
:1029300084422ED82A4F3846056801E02F462D687C
:102940006868A04202D228680028F7D1254885424D
:102950001FD0386800F10808286838606868001BD4
:10296000102810D92E196868001B70606C6071689F
:102970001B4800E00068026852688A42FAD3026885
:102980003260066000BF194968680968081A17496B
:102990000860FEF751FE4046BDE8F08170B506467E
:1029A0003546B6B1083D2C46FEF733FF61680C484A
:1029B00000E00068026852688A42FAD30268226026
:1029C00004600A4960680968084408490860FEF71D
:1029D00033FE70BD05480068704770472F01002026
:1029E000440000204C00002058000020540000202B
:1029F000064C074D06E0E06840F0010394E807004C
:102A000098471034AC42F6D3FDF774FB782A0000E7
:102A1000982A0000014A024900F013B8D3100000C0
:102A20005C00002002E008C8121F08C1002AFAD189
:102A300070477047002001E001C1121F002AFBD13E
:102A400070472DE9F04116460F460446002503E085
:102A50003946B047641C6D1C20780028F8D1284600
:102A6000BDE8F0810000000001020304010203043C
:102A70000607080902040608982A00000000002042
:102A800060000000242A0000F82A000060000020F6
:102A9000C8460000342A00000000000000000000CA
:102AA0000000000000000000000000000000000026
:102AB0000000000000000000000000000000000016
:102AC0000000000000000000000000000000000006
:102AD0000400000000000000AAAAAAAA000000004A
:102AE000000000000000000000000000F8430000AB
:082AF0000000000000000000DE
:04000005000000ED0A
:00000001FF
